{
  "contractName": "SDTToken",
  "abi": [
    {
      "inputs": [],
      "stateMutability": "nonpayable",
      "type": "constructor"
    },
    {
      "anonymous": false,
      "inputs": [
        {
          "indexed": true,
          "internalType": "address",
          "name": "owner",
          "type": "address"
        },
        {
          "indexed": true,
          "internalType": "address",
          "name": "spender",
          "type": "address"
        },
        {
          "indexed": false,
          "internalType": "uint256",
          "name": "value",
          "type": "uint256"
        }
      ],
      "name": "Approval",
      "type": "event"
    },
    {
      "anonymous": false,
      "inputs": [
        {
          "indexed": true,
          "internalType": "address",
          "name": "from",
          "type": "address"
        },
        {
          "indexed": true,
          "internalType": "address",
          "name": "to",
          "type": "address"
        },
        {
          "indexed": false,
          "internalType": "uint256",
          "name": "value",
          "type": "uint256"
        }
      ],
      "name": "Transfer",
      "type": "event"
    },
    {
      "inputs": [
        {
          "internalType": "address",
          "name": "",
          "type": "address"
        },
        {
          "internalType": "address",
          "name": "",
          "type": "address"
        }
      ],
      "name": "allowances",
      "outputs": [
        {
          "internalType": "uint256",
          "name": "",
          "type": "uint256"
        }
      ],
      "stateMutability": "view",
      "type": "function",
      "constant": true
    },
    {
      "inputs": [
        {
          "internalType": "address",
          "name": "",
          "type": "address"
        }
      ],
      "name": "holdersRecord",
      "outputs": [
        {
          "internalType": "uint256",
          "name": "",
          "type": "uint256"
        }
      ],
      "stateMutability": "view",
      "type": "function",
      "constant": true
    },
    {
      "inputs": [],
      "name": "getSupply",
      "outputs": [
        {
          "internalType": "uint256",
          "name": "",
          "type": "uint256"
        }
      ],
      "stateMutability": "view",
      "type": "function",
      "constant": true
    },
    {
      "inputs": [
        {
          "internalType": "address",
          "name": "holder",
          "type": "address"
        }
      ],
      "name": "balanceOf",
      "outputs": [
        {
          "internalType": "uint256",
          "name": "",
          "type": "uint256"
        }
      ],
      "stateMutability": "view",
      "type": "function",
      "constant": true
    },
    {
      "inputs": [
        {
          "internalType": "address",
          "name": "recipent",
          "type": "address"
        },
        {
          "internalType": "uint256",
          "name": "amountToSend",
          "type": "uint256"
        }
      ],
      "name": "transfer",
      "outputs": [
        {
          "internalType": "bool",
          "name": "",
          "type": "bool"
        }
      ],
      "stateMutability": "nonpayable",
      "type": "function"
    },
    {
      "inputs": [],
      "name": "getBal",
      "outputs": [
        {
          "internalType": "uint256",
          "name": "",
          "type": "uint256"
        }
      ],
      "stateMutability": "view",
      "type": "function",
      "constant": true
    },
    {
      "inputs": [
        {
          "internalType": "address",
          "name": "spender",
          "type": "address"
        },
        {
          "internalType": "uint256",
          "name": "allowanceAmount",
          "type": "uint256"
        }
      ],
      "name": "approve",
      "outputs": [
        {
          "internalType": "bool",
          "name": "",
          "type": "bool"
        }
      ],
      "stateMutability": "nonpayable",
      "type": "function"
    },
    {
      "inputs": [
        {
          "internalType": "address",
          "name": "owner",
          "type": "address"
        },
        {
          "internalType": "address",
          "name": "spender",
          "type": "address"
        }
      ],
      "name": "returnAllowance",
      "outputs": [
        {
          "internalType": "uint256",
          "name": "",
          "type": "uint256"
        }
      ],
      "stateMutability": "view",
      "type": "function",
      "constant": true
    },
    {
      "inputs": [
        {
          "internalType": "address",
          "name": "from",
          "type": "address"
        },
        {
          "internalType": "address",
          "name": "to",
          "type": "address"
        },
        {
          "internalType": "uint256",
          "name": "transferAmount",
          "type": "uint256"
        }
      ],
      "name": "transferFrom",
      "outputs": [
        {
          "internalType": "bool",
          "name": "",
          "type": "bool"
        }
      ],
      "stateMutability": "nonpayable",
      "type": "function"
    }
  ],
  "bytecode": "0x60806040526040518060400160405280600981526020017f5344542d746f6b656e00000000000000000000000000000000000000000000008152506000908051906020019061004f929190610117565b506040518060400160405280600381526020017f53445400000000000000000000000000000000000000000000000000000000008152506001908051906020019061009b929190610117565b506012600260006101000a81548160ff021916908360ff160217905550620f42406003553480156100cb57600080fd5b50600354600460003373ffffffffffffffffffffffffffffffffffffffff1673ffffffffffffffffffffffffffffffffffffffff1681526020019081526020016000208190555061021b565b828054610123906101e9565b90600052602060002090601f016020900481019282610145576000855561018c565b82601f1061015e57805160ff191683800117855561018c565b8280016001018555821561018c579182015b8281111561018b578251825591602001919060010190610170565b5b509050610199919061019d565b5090565b5b808211156101b657600081600090555060010161019e565b5090565b7f4e487b7100000000000000000000000000000000000000000000000000000000600052602260045260246000fd5b6000600282049050600182168061020157607f821691505b60208210811415610215576102146101ba565b5b50919050565b610a4b8061022a6000396000f3fe608060405234801561001057600080fd5b50600436106100935760003560e01c80636c9c2faf116100665780636c9c2faf1461014657806370a0823114610164578063a7722cc214610194578063a9059cbb146101c4578063e7137792146101f457610093565b8063095ea7b31461009857806323b872dd146100c857806325caa262146100f857806355b6ed5c14610116575b600080fd5b6100b260048036038101906100ad91906107fc565b610224565b6040516100bf9190610857565b60405180910390f35b6100e260048036038101906100dd9190610872565b6102b6565b6040516100ef9190610857565b60405180910390f35b6101006103ef565b60405161010d91906108d4565b60405180910390f35b610130600480360381019061012b91906108ef565b610436565b60405161013d91906108d4565b60405180910390f35b61014e61045b565b60405161015b91906108d4565b60405180910390f35b61017e6004803603810190610179919061092f565b610465565b60405161018b91906108d4565b60405180910390f35b6101ae60048036038101906101a9919061092f565b6104ae565b6040516101bb91906108d4565b60405180910390f35b6101de60048036038101906101d991906107fc565b6104c6565b6040516101eb9190610857565b60405180910390f35b61020e600480360381019061020991906108ef565b61063a565b60405161021b91906108d4565b60405180910390f35b60008033905082600560008373ffffffffffffffffffffffffffffffffffffffff1673ffffffffffffffffffffffffffffffffffffffff16815260200190815260200160002060008673ffffffffffffffffffffffffffffffffffffffff1673ffffffffffffffffffffffffffffffffffffffff16815260200190815260200160002081905550600191505092915050565b6000803390506102c78582856106c1565b82600460008673ffffffffffffffffffffffffffffffffffffffff1673ffffffffffffffffffffffffffffffffffffffff16815260200190815260200160002054610312919061098b565b600460008673ffffffffffffffffffffffffffffffffffffffff1673ffffffffffffffffffffffffffffffffffffffff1681526020019081526020016000208190555082600460008773ffffffffffffffffffffffffffffffffffffffff1673ffffffffffffffffffffffffffffffffffffffff168152602001908152602001600020546103a091906109e1565b600460008773ffffffffffffffffffffffffffffffffffffffff1673ffffffffffffffffffffffffffffffffffffffff1681526020019081526020016000208190555060019150509392505050565b6000600460003373ffffffffffffffffffffffffffffffffffffffff1673ffffffffffffffffffffffffffffffffffffffff16815260200190815260200160002054905090565b6005602052816000526040600020602052806000526040600020600091509150505481565b6000600354905090565b6000600460008373ffffffffffffffffffffffffffffffffffffffff1673ffffffffffffffffffffffffffffffffffffffff168152602001908152602001600020549050919050565b60046020528060005260406000206000915090505481565b600081600460003373ffffffffffffffffffffffffffffffffffffffff1673ffffffffffffffffffffffffffffffffffffffff16815260200190815260200160002054101561051457600080fd5b81600460008573ffffffffffffffffffffffffffffffffffffffff1673ffffffffffffffffffffffffffffffffffffffff1681526020019081526020016000205461055f919061098b565b600460008573ffffffffffffffffffffffffffffffffffffffff1673ffffffffffffffffffffffffffffffffffffffff1681526020019081526020016000208190555081600460003373ffffffffffffffffffffffffffffffffffffffff1673ffffffffffffffffffffffffffffffffffffffff168152602001908152602001600020546105ed91906109e1565b600460003373ffffffffffffffffffffffffffffffffffffffff1673ffffffffffffffffffffffffffffffffffffffff168152602001908152602001600020819055506001905092915050565b6000600560008473ffffffffffffffffffffffffffffffffffffffff1673ffffffffffffffffffffffffffffffffffffffff16815260200190815260200160002060008373ffffffffffffffffffffffffffffffffffffffff1673ffffffffffffffffffffffffffffffffffffffff16815260200190815260200160002054905092915050565b6000600560008573ffffffffffffffffffffffffffffffffffffffff1673ffffffffffffffffffffffffffffffffffffffff16815260200190815260200160002060008473ffffffffffffffffffffffffffffffffffffffff1673ffffffffffffffffffffffffffffffffffffffff1681526020019081526020016000205490508181101561074f57600080fd5b818161075b91906109e1565b905050505050565b600080fd5b600073ffffffffffffffffffffffffffffffffffffffff82169050919050565b600061079382610768565b9050919050565b6107a381610788565b81146107ae57600080fd5b50565b6000813590506107c08161079a565b92915050565b6000819050919050565b6107d9816107c6565b81146107e457600080fd5b50565b6000813590506107f6816107d0565b92915050565b6000806040838503121561081357610812610763565b5b6000610821858286016107b1565b9250506020610832858286016107e7565b9150509250929050565b60008115159050919050565b6108518161083c565b82525050565b600060208201905061086c6000830184610848565b92915050565b60008060006060848603121561088b5761088a610763565b5b6000610899868287016107b1565b93505060206108aa868287016107b1565b92505060406108bb868287016107e7565b9150509250925092565b6108ce816107c6565b82525050565b60006020820190506108e960008301846108c5565b92915050565b6000806040838503121561090657610905610763565b5b6000610914858286016107b1565b9250506020610925858286016107b1565b9150509250929050565b60006020828403121561094557610944610763565b5b6000610953848285016107b1565b91505092915050565b7f4e487b7100000000000000000000000000000000000000000000000000000000600052601160045260246000fd5b6000610996826107c6565b91506109a1836107c6565b9250827fffffffffffffffffffffffffffffffffffffffffffffffffffffffffffffffff038211156109d6576109d561095c565b5b828201905092915050565b60006109ec826107c6565b91506109f7836107c6565b925082821015610a0a57610a0961095c565b5b82820390509291505056fea2646970667358221220a50a6cd9d5edd03b31cc57f579b46bc4a0f67fdb4c8f46e3b2003623fa81d7c164736f6c634300080b0033",
  "immutableReferences": {},
  "source": "// SPDX-License-Identifier: MIT\r\npragma solidity >0.5.0 <= 0.9.0;\r\n\r\n\r\ninterface IERC20 {\r\n\r\n    function getSupply() external  view returns (uint256);\r\n    function balanceOf(address account) external view returns (uint256);\r\n    function returnAllowance(address owner, address spender) external view returns (uint256);\r\n\r\n    function transfer(address recipient, uint256 amount) external returns (bool);\r\n    function approve(address spender, uint256 amount) external returns (bool);\r\n    function transferFrom(address sender, address recipient, uint256 amount) external returns (bool);\r\n\r\n\r\n    event Transfer(address indexed from, address indexed to, uint256 value);\r\n    event Approval(address indexed owner, address indexed spender, uint256 value);\r\n}\r\n// contract address 0x1D674e15261A9F1d2BAdB73685a02bBD475F0EE6\r\ncontract SDTToken is IERC20 {\r\n    string name = 'SDT-token';\r\n    string symbol = 'SDT';\r\n    uint8 decimal = 18;\r\n    uint totalSupply = 1000000;\r\n\r\n    mapping(address => uint) public holdersRecord;\r\n    mapping(address => mapping(address => uint)) public allowances;\r\n\r\n    constructor() {\r\n        holdersRecord[msg.sender] = totalSupply;\r\n    }\r\n\r\n    function getSupply() external override view returns(uint) {\r\n        return totalSupply;\r\n    }\r\n\r\n    function balanceOf(address holder) external override view returns(uint) {\r\n        return holdersRecord[holder];\r\n    }\r\n\r\n    function transfer(address recipent, uint amountToSend) external override returns(bool)  {\r\n        require(holdersRecord[msg.sender] >= amountToSend);\r\n        holdersRecord[recipent] =  holdersRecord[recipent] + amountToSend;\r\n        holdersRecord[msg.sender] =  holdersRecord[msg.sender] - amountToSend;\r\n        return true;\r\n    }\r\n    function getBal() external view returns(uint) {\r\n        return holdersRecord[msg.sender];\r\n    }\r\n\r\n    function approve(address spender, uint allowanceAmount) external override returns(bool) {\r\n        address owner = msg.sender;\r\n        allowances[owner][spender] = allowanceAmount;\r\n        return true;\r\n    }\r\n\r\n    function returnAllowance(address owner, address spender) external override view returns(uint) {\r\n        return allowances[owner][spender];\r\n    }\r\n\r\n    function transferFrom(address from, address to, uint transferAmount) external override returns(bool) {\r\n        address spender = msg.sender;\r\n        spendAllowance(from, spender, transferAmount);\r\n        holdersRecord[to] = holdersRecord[to] + transferAmount;\r\n        holdersRecord[from] =  holdersRecord[from] - transferAmount;\r\n        return true;\r\n    }\r\n\r\n    function spendAllowance(address owner, address spender, uint allowanceAmount) internal view {\r\n        uint allowanceBalance = allowances[owner][spender];\r\n        require(allowanceBalance >= allowanceAmount);\r\n        allowanceBalance = allowanceBalance - allowanceAmount;\r\n    }\r\n\r\n}",
  "sourcePath": "C:\\Users\\lateefat .D. Ibrahim\\Desktop\\Blank\\hayorGithub\\SDT-protocol\\contracts\\sdt-token.sol",
  "compiler": {
    "name": "solc",
    "version": "0.8.11+commit.d7f03943.Emscripten.clang"
  },
  "schemaVersion": "3.4.4",
  "updatedAt": "2022-10-19T14:48:39.313Z",
  "networkType": "ethereum",
  "devdoc": {
    "kind": "dev",
    "methods": {},
    "version": 1
  },
  "userdoc": {
    "kind": "user",
    "methods": {},
    "version": 1
  }
}