{
  "contractName": "stakeSDT",
  "abi": [
    {
      "inputs": [],
      "stateMutability": "nonpayable",
      "type": "constructor"
    },
    {
      "inputs": [
        {
          "internalType": "string",
          "name": "",
          "type": "string"
        }
      ],
      "name": "message",
      "type": "error"
    },
    {
      "inputs": [],
      "name": "borrowCalled",
      "outputs": [
        {
          "internalType": "bool",
          "name": "",
          "type": "bool"
        }
      ],
      "stateMutability": "view",
      "type": "function",
      "constant": true
    },
    {
      "inputs": [
        {
          "internalType": "uint256",
          "name": "",
          "type": "uint256"
        }
      ],
      "name": "ethLenders",
      "outputs": [
        {
          "internalType": "address",
          "name": "",
          "type": "address"
        }
      ],
      "stateMutability": "view",
      "type": "function",
      "constant": true
    },
    {
      "inputs": [
        {
          "internalType": "uint256",
          "name": "",
          "type": "uint256"
        }
      ],
      "name": "ethStakers",
      "outputs": [
        {
          "internalType": "address",
          "name": "",
          "type": "address"
        }
      ],
      "stateMutability": "view",
      "type": "function",
      "constant": true
    },
    {
      "inputs": [
        {
          "internalType": "uint256",
          "name": "",
          "type": "uint256"
        }
      ],
      "name": "functionTime",
      "outputs": [
        {
          "internalType": "uint256",
          "name": "",
          "type": "uint256"
        }
      ],
      "stateMutability": "view",
      "type": "function",
      "constant": true
    },
    {
      "inputs": [
        {
          "internalType": "address",
          "name": "",
          "type": "address"
        }
      ],
      "name": "lenderVaultInfo",
      "outputs": [
        {
          "internalType": "uint256",
          "name": "",
          "type": "uint256"
        }
      ],
      "stateMutability": "view",
      "type": "function",
      "constant": true
    },
    {
      "inputs": [
        {
          "internalType": "address",
          "name": "",
          "type": "address"
        }
      ],
      "name": "lendersRegister",
      "outputs": [
        {
          "internalType": "bool",
          "name": "",
          "type": "bool"
        }
      ],
      "stateMutability": "view",
      "type": "function",
      "constant": true
    },
    {
      "inputs": [],
      "name": "stakeVault",
      "outputs": [
        {
          "internalType": "address",
          "name": "",
          "type": "address"
        }
      ],
      "stateMutability": "view",
      "type": "function",
      "constant": true
    },
    {
      "inputs": [
        {
          "internalType": "address",
          "name": "",
          "type": "address"
        }
      ],
      "name": "stakeVaultInfo",
      "outputs": [
        {
          "internalType": "uint256",
          "name": "",
          "type": "uint256"
        }
      ],
      "stateMutability": "view",
      "type": "function",
      "constant": true
    },
    {
      "inputs": [
        {
          "internalType": "address",
          "name": "",
          "type": "address"
        }
      ],
      "name": "stakersRegister",
      "outputs": [
        {
          "internalType": "bool",
          "name": "",
          "type": "bool"
        }
      ],
      "stateMutability": "view",
      "type": "function",
      "constant": true
    },
    {
      "inputs": [],
      "name": "token",
      "outputs": [
        {
          "internalType": "contract SDTToken",
          "name": "",
          "type": "address"
        }
      ],
      "stateMutability": "view",
      "type": "function",
      "constant": true
    },
    {
      "inputs": [
        {
          "internalType": "address",
          "name": "staker",
          "type": "address"
        },
        {
          "internalType": "address",
          "name": "to",
          "type": "address"
        },
        {
          "internalType": "uint256",
          "name": "amount",
          "type": "uint256"
        }
      ],
      "name": "stake",
      "outputs": [],
      "stateMutability": "nonpayable",
      "type": "function"
    },
    {
      "inputs": [
        {
          "internalType": "address",
          "name": "account",
          "type": "address"
        }
      ],
      "name": "getSDTBal",
      "outputs": [
        {
          "internalType": "uint256",
          "name": "",
          "type": "uint256"
        }
      ],
      "stateMutability": "view",
      "type": "function",
      "constant": true
    },
    {
      "inputs": [],
      "name": "getStakingBal",
      "outputs": [
        {
          "internalType": "uint256",
          "name": "",
          "type": "uint256"
        }
      ],
      "stateMutability": "view",
      "type": "function",
      "constant": true
    },
    {
      "inputs": [
        {
          "internalType": "uint256",
          "name": "amount",
          "type": "uint256"
        },
        {
          "internalType": "address",
          "name": "borrower",
          "type": "address"
        },
        {
          "internalType": "uint256",
          "name": "repayTime",
          "type": "uint256"
        }
      ],
      "name": "borrow",
      "outputs": [],
      "stateMutability": "nonpayable",
      "type": "function"
    },
    {
      "inputs": [
        {
          "internalType": "address",
          "name": "_vault",
          "type": "address"
        },
        {
          "internalType": "uint256",
          "name": "amount",
          "type": "uint256"
        },
        {
          "internalType": "address payable",
          "name": "lender",
          "type": "address"
        }
      ],
      "name": "lend",
      "outputs": [],
      "stateMutability": "nonpayable",
      "type": "function"
    },
    {
      "inputs": [
        {
          "internalType": "address",
          "name": "pVault",
          "type": "address"
        },
        {
          "internalType": "address",
          "name": "payingLender",
          "type": "address"
        },
        {
          "internalType": "uint256",
          "name": "amount",
          "type": "uint256"
        }
      ],
      "name": "repayment",
      "outputs": [],
      "stateMutability": "nonpayable",
      "type": "function"
    },
    {
      "inputs": [],
      "name": "getReward",
      "outputs": [
        {
          "internalType": "uint256",
          "name": "",
          "type": "uint256"
        }
      ],
      "stateMutability": "view",
      "type": "function",
      "constant": true
    },
    {
      "inputs": [
        {
          "internalType": "uint256",
          "name": "amount",
          "type": "uint256"
        },
        {
          "internalType": "address payable",
          "name": "recipent",
          "type": "address"
        }
      ],
      "name": "rewardStaker",
      "outputs": [],
      "stateMutability": "payable",
      "type": "function",
      "payable": true
    }
  ],
  "bytecode": "0x60a0604052736cb911eda0e4d07f21ae2f735450dedbe03874636000806101000a81548173ffffffffffffffffffffffffffffffffffffffff021916908373ffffffffffffffffffffffffffffffffffffffff16021790555073246897c43c988a198b47703e0d3d7803835dd78a600160006101000a81548173ffffffffffffffffffffffffffffffffffffffff021916908373ffffffffffffffffffffffffffffffffffffffff1602179055503480156100b957600080fd5b503373ffffffffffffffffffffffffffffffffffffffff1660808173ffffffffffffffffffffffffffffffffffffffff16815250506080516123e061010960003960006108cc01526123e06000f3fe6080604052600436106101095760003560e01c80637b1c443211610095578063c142f26611610064578063c142f26614610382578063d03f02fa146103bf578063e3216964146103fc578063f4807f9914610425578063fc0c546a1461046257610109565b80637b1c4432146102e9578063b3aa6fa714610312578063b6fd17db1461032e578063bf6eac2f1461035957610109565b80632731ad2d116100dc5780632731ad2d146101ee57806327fedab31461022b5780632d788333146102565780633d18b912146102815780634a3ea4ce146102ac57610109565b8063057c379e1461010e5780630a954b471461014b5780630c28d13e14610188578063142dbbe4146101b1575b600080fd5b34801561011a57600080fd5b5061013560048036038101906101309190611c95565b61048d565b6040516101429190611cdb565b60405180910390f35b34801561015757600080fd5b50610172600480360381019061016d9190611d22565b6104a5565b60405161017f9190611d5e565b60405180910390f35b34801561019457600080fd5b506101af60048036038101906101aa9190611d79565b6104e4565b005b3480156101bd57600080fd5b506101d860048036038101906101d39190611c95565b6107a0565b6040516101e59190611cdb565b60405180910390f35b3480156101fa57600080fd5b5061021560048036038101906102109190611d22565b610844565b6040516102229190611d5e565b60405180910390f35b34801561023757600080fd5b50610240610883565b60405161024d9190611cdb565b60405180910390f35b34801561026257600080fd5b5061026b6108ca565b6040516102789190611d5e565b60405180910390f35b34801561028d57600080fd5b506102966108ee565b6040516102a39190611cdb565b60405180910390f35b3480156102b857600080fd5b506102d360048036038101906102ce9190611d22565b610935565b6040516102e09190611cdb565b60405180910390f35b3480156102f557600080fd5b50610310600480360381019061030b9190611e0a565b610959565b005b61032c60048036038101906103279190611e5d565b610b76565b005b34801561033a57600080fd5b5061034361171c565b6040516103509190611eb8565b60405180910390f35b34801561036557600080fd5b50610380600480360381019061037b9190611ed3565b61172f565b005b34801561038e57600080fd5b506103a960048036038101906103a49190611c95565b6119a1565b6040516103b69190611eb8565b60405180910390f35b3480156103cb57600080fd5b506103e660048036038101906103e19190611c95565b6119c1565b6040516103f39190611cdb565b60405180910390f35b34801561040857600080fd5b50610423600480360381019061041e9190611ed3565b6119d9565b005b34801561043157600080fd5b5061044c60048036038101906104479190611c95565b611bee565b6040516104599190611eb8565b60405180910390f35b34801561046e57600080fd5b50610477611c0e565b6040516104849190611f85565b60405180910390f35b60096020528060005260406000206000915090505481565b600281815481106104b557600080fd5b906000526020600020016000915054906101000a900473ffffffffffffffffffffffffffffffffffffffff1681565b600080826104f29190611fcf565b600c819055503373ffffffffffffffffffffffffffffffffffffffff168373ffffffffffffffffffffffffffffffffffffffff1614610566576040517f08c379a000000000000000000000000000000000000000000000000000000000815260040161055d90612082565b60405180910390fd5b60011515600760008573ffffffffffffffffffffffffffffffffffffffff1673ffffffffffffffffffffffffffffffffffffffff16815260200190815260200160002060009054906101000a900460ff161515146105f9576040517f08c379a00000000000000000000000000000000000000000000000000000000081526004016105f0906120ee565b60405180910390fd5b6002600660008573ffffffffffffffffffffffffffffffffffffffff1673ffffffffffffffffffffffffffffffffffffffff16815260200190815260200160002054610645919061210e565b841115610687576040517f08c379a000000000000000000000000000000000000000000000000000000000815260040161067e906121b4565b60405180910390fd5b6003839080600181540180825580915050600190039060005260206000200160009091909190916101000a81548173ffffffffffffffffffffffffffffffffffffffff021916908373ffffffffffffffffffffffffffffffffffffffff1602179055506001600560006101000a81548160ff02191690831515021790555083600960008573ffffffffffffffffffffffffffffffffffffffff1673ffffffffffffffffffffffffffffffffffffffff16815260200190815260200160002081905550600c54426107579190611fcf565b600b60008573ffffffffffffffffffffffffffffffffffffffff1673ffffffffffffffffffffffffffffffffffffffff1681526020019081526020016000208190555050505050565b60008060009054906101000a900473ffffffffffffffffffffffffffffffffffffffff1673ffffffffffffffffffffffffffffffffffffffff166370a08231836040518263ffffffff1660e01b81526004016107fc9190611d5e565b602060405180830381865afa158015610819573d6000803e3d6000fd5b505050506040513d601f19601f8201168201806040525081019061083d91906121e9565b9050919050565b6003818154811061085457600080fd5b906000526020600020016000915054906101000a900473ffffffffffffffffffffffffffffffffffffffff1681565b6000600660003373ffffffffffffffffffffffffffffffffffffffff1673ffffffffffffffffffffffffffffffffffffffff16815260200190815260200160002054905090565b7f000000000000000000000000000000000000000000000000000000000000000081565b6000600a60003373ffffffffffffffffffffffffffffffffffffffff1673ffffffffffffffffffffffffffffffffffffffff16815260200190815260200160002054905090565b6004818154811061094557600080fd5b906000526020600020016000915090505481565b60011515600560009054906101000a900460ff1615151461097957600080fd5b600160009054906101000a900473ffffffffffffffffffffffffffffffffffffffff1673ffffffffffffffffffffffffffffffffffffffff168373ffffffffffffffffffffffffffffffffffffffff16146109d357600080fd5b81600960008373ffffffffffffffffffffffffffffffffffffffff1673ffffffffffffffffffffffffffffffffffffffff1681526020019081526020016000205414610a1e57600080fd5b60005b600380549050811015610b70578173ffffffffffffffffffffffffffffffffffffffff1660038281548110610a5957610a58612216565b5b9060005260206000200160009054906101000a900473ffffffffffffffffffffffffffffffffffffffff1673ffffffffffffffffffffffffffffffffffffffff161415610b5d5760008054906101000a900473ffffffffffffffffffffffffffffffffffffffff1673ffffffffffffffffffffffffffffffffffffffff166323b872dd8584866040518463ffffffff1660e01b8152600401610afd93929190612266565b6020604051808303816000875af1158015610b1c573d6000803e3d6000fd5b505050506040513d601f19601f82011682018060405250810190610b4091906122c9565b506000600560006101000a81548160ff0219169083151502179055505b8080610b68906122f6565b915050610a21565b50505050565b349150600160009054906101000a900473ffffffffffffffffffffffffffffffffffffffff1673ffffffffffffffffffffffffffffffffffffffff163373ffffffffffffffffffffffffffffffffffffffff1614610bd357600080fd5b60044290806001815401808255809150506001900390600052602060002001600090919091909150556002600480549050111561119257601e60046002600480549050610c20919061233f565b81548110610c3157610c30612216565b5b9060005260206000200154610c469190611fcf565b421015610c5257600080fd5b6103e8600660008373ffffffffffffffffffffffffffffffffffffffff1673ffffffffffffffffffffffffffffffffffffffff16815260200190815260200160002054101580610ce35750611387600660008373ffffffffffffffffffffffffffffffffffffffff1673ffffffffffffffffffffffffffffffffffffffff1681526020019081526020016000205411155b15610d7d576103e8915034600a60008373ffffffffffffffffffffffffffffffffffffffff1673ffffffffffffffffffffffffffffffffffffffff168152602001908152602001600020819055508073ffffffffffffffffffffffffffffffffffffffff166108fc349081150290604051600060405180830381858888f19350505050158015610d77573d6000803e3d6000fd5b5061118d565b611388600660008373ffffffffffffffffffffffffffffffffffffffff1673ffffffffffffffffffffffffffffffffffffffff16815260200190815260200160002054101580610e0e5750614e1f600660008373ffffffffffffffffffffffffffffffffffffffff1673ffffffffffffffffffffffffffffffffffffffff1681526020019081526020016000205411155b15610ef25761138891508073ffffffffffffffffffffffffffffffffffffffff166108fc349081150290604051600060405180830381858888f19350505050158015610e5e573d6000803e3d6000fd5b5034600a60008373ffffffffffffffffffffffffffffffffffffffff1673ffffffffffffffffffffffffffffffffffffffff16815260200190815260200160002054610eaa9190611fcf565b600a60008373ffffffffffffffffffffffffffffffffffffffff1673ffffffffffffffffffffffffffffffffffffffff1681526020019081526020016000208190555061118c565b614e20600660008373ffffffffffffffffffffffffffffffffffffffff1673ffffffffffffffffffffffffffffffffffffffff16815260200190815260200160002054101580610f83575061c34f600660008373ffffffffffffffffffffffffffffffffffffffff1673ffffffffffffffffffffffffffffffffffffffff1681526020019081526020016000205411155b156110675761271091508073ffffffffffffffffffffffffffffffffffffffff166108fc349081150290604051600060405180830381858888f19350505050158015610fd3573d6000803e3d6000fd5b5034600a60008373ffffffffffffffffffffffffffffffffffffffff1673ffffffffffffffffffffffffffffffffffffffff1681526020019081526020016000205461101f9190611fcf565b600a60008373ffffffffffffffffffffffffffffffffffffffff1673ffffffffffffffffffffffffffffffffffffffff1681526020019081526020016000208190555061118b565b61c350600660008373ffffffffffffffffffffffffffffffffffffffff1673ffffffffffffffffffffffffffffffffffffffff168152602001908152602001600020541061118a576161a891508073ffffffffffffffffffffffffffffffffffffffff166108fc349081150290604051600060405180830381858888f193505050501580156110fa573d6000803e3d6000fd5b5034600a60008373ffffffffffffffffffffffffffffffffffffffff1673ffffffffffffffffffffffffffffffffffffffff168152602001908152602001600020546111469190611fcf565b600a60008373ffffffffffffffffffffffffffffffffffffffff1673ffffffffffffffffffffffffffffffffffffffff168152602001908152602001600020819055505b5b5b5b611718565b6103e8600660008373ffffffffffffffffffffffffffffffffffffffff1673ffffffffffffffffffffffffffffffffffffffff168152602001908152602001600020541015806112235750611387600660008373ffffffffffffffffffffffffffffffffffffffff1673ffffffffffffffffffffffffffffffffffffffff1681526020019081526020016000205411155b15611307576103e891508073ffffffffffffffffffffffffffffffffffffffff166108fc349081150290604051600060405180830381858888f19350505050158015611273573d6000803e3d6000fd5b5034600a60008373ffffffffffffffffffffffffffffffffffffffff1673ffffffffffffffffffffffffffffffffffffffff168152602001908152602001600020546112bf9190611fcf565b600a60008373ffffffffffffffffffffffffffffffffffffffff1673ffffffffffffffffffffffffffffffffffffffff16815260200190815260200160002081905550611717565b611388600660008373ffffffffffffffffffffffffffffffffffffffff1673ffffffffffffffffffffffffffffffffffffffff168152602001908152602001600020541015806113985750614e1f600660008373ffffffffffffffffffffffffffffffffffffffff1673ffffffffffffffffffffffffffffffffffffffff1681526020019081526020016000205411155b1561147c5761138891508073ffffffffffffffffffffffffffffffffffffffff166108fc349081150290604051600060405180830381858888f193505050501580156113e8573d6000803e3d6000fd5b5034600a60008373ffffffffffffffffffffffffffffffffffffffff1673ffffffffffffffffffffffffffffffffffffffff168152602001908152602001600020546114349190611fcf565b600a60008373ffffffffffffffffffffffffffffffffffffffff1673ffffffffffffffffffffffffffffffffffffffff16815260200190815260200160002081905550611716565b614e20600660008373ffffffffffffffffffffffffffffffffffffffff1673ffffffffffffffffffffffffffffffffffffffff1681526020019081526020016000205410158061150d575061c34f600660008373ffffffffffffffffffffffffffffffffffffffff1673ffffffffffffffffffffffffffffffffffffffff1681526020019081526020016000205411155b156115f15761271091508073ffffffffffffffffffffffffffffffffffffffff166108fc349081150290604051600060405180830381858888f1935050505015801561155d573d6000803e3d6000fd5b5034600a60008373ffffffffffffffffffffffffffffffffffffffff1673ffffffffffffffffffffffffffffffffffffffff168152602001908152602001600020546115a99190611fcf565b600a60008373ffffffffffffffffffffffffffffffffffffffff1673ffffffffffffffffffffffffffffffffffffffff16815260200190815260200160002081905550611715565b61c350600660008373ffffffffffffffffffffffffffffffffffffffff1673ffffffffffffffffffffffffffffffffffffffff1681526020019081526020016000205410611714576161a891508073ffffffffffffffffffffffffffffffffffffffff166108fc349081150290604051600060405180830381858888f19350505050158015611684573d6000803e3d6000fd5b5034600a60008373ffffffffffffffffffffffffffffffffffffffff1673ffffffffffffffffffffffffffffffffffffffff168152602001908152602001600020546116d09190611fcf565b600a60008373ffffffffffffffffffffffffffffffffffffffff1673ffffffffffffffffffffffffffffffffffffffff168152602001908152602001600020819055505b5b5b5b5b5050565b600560009054906101000a900460ff1681565b60006103e890508082101561174357600080fd5b600160009054906101000a900473ffffffffffffffffffffffffffffffffffffffff1673ffffffffffffffffffffffffffffffffffffffff168373ffffffffffffffffffffffffffffffffffffffff161461179d57600080fd5b600033905082600660008773ffffffffffffffffffffffffffffffffffffffff1673ffffffffffffffffffffffffffffffffffffffff168152602001908152602001600020819055506002859080600181540180825580915050600190039060005260206000200160009091909190916101000a81548173ffffffffffffffffffffffffffffffffffffffff021916908373ffffffffffffffffffffffffffffffffffffffff1602179055506001600760008773ffffffffffffffffffffffffffffffffffffffff1673ffffffffffffffffffffffffffffffffffffffff16815260200190815260200160002060006101000a81548160ff0219169083151502179055506000600860008773ffffffffffffffffffffffffffffffffffffffff1673ffffffffffffffffffffffffffffffffffffffff16815260200190815260200160002060006101000a81548160ff02191690831515021790555060008054906101000a900473ffffffffffffffffffffffffffffffffffffffff1673ffffffffffffffffffffffffffffffffffffffff166323b872dd8686866040518463ffffffff1660e01b815260040161195693929190612373565b6020604051808303816000875af1158015611975573d6000803e3d6000fd5b505050506040513d601f19601f8201168201806040525081019061199991906122c9565b505050505050565b60076020528060005260406000206000915054906101000a900460ff1681565b60066020528060005260406000206000915090505481565b600960008373ffffffffffffffffffffffffffffffffffffffff1673ffffffffffffffffffffffffffffffffffffffff168152602001908152602001600020548114611a2457600080fd5b600b60008373ffffffffffffffffffffffffffffffffffffffff1673ffffffffffffffffffffffffffffffffffffffff16815260200190815260200160002054421015611a7057600080fd5b60005b600380549050811015611be8578273ffffffffffffffffffffffffffffffffffffffff1660038281548110611aab57611aaa612216565b5b9060005260206000200160009054906101000a900473ffffffffffffffffffffffffffffffffffffffff1673ffffffffffffffffffffffffffffffffffffffff161415611bd55760008054906101000a900473ffffffffffffffffffffffffffffffffffffffff1673ffffffffffffffffffffffffffffffffffffffff166323b872dd8486856040518463ffffffff1660e01b8152600401611b4f93929190612373565b6020604051808303816000875af1158015611b6e573d6000803e3d6000fd5b505050506040513d601f19601f82011682018060405250810190611b9291906122c9565b5060038181548110611ba757611ba6612216565b5b9060005260206000200160006101000a81549073ffffffffffffffffffffffffffffffffffffffff02191690555b8080611be0906122f6565b915050611a73565b50505050565b60086020528060005260406000206000915054906101000a900460ff1681565b60008054906101000a900473ffffffffffffffffffffffffffffffffffffffff1681565b600080fd5b600073ffffffffffffffffffffffffffffffffffffffff82169050919050565b6000611c6282611c37565b9050919050565b611c7281611c57565b8114611c7d57600080fd5b50565b600081359050611c8f81611c69565b92915050565b600060208284031215611cab57611caa611c32565b5b6000611cb984828501611c80565b91505092915050565b6000819050919050565b611cd581611cc2565b82525050565b6000602082019050611cf06000830184611ccc565b92915050565b611cff81611cc2565b8114611d0a57600080fd5b50565b600081359050611d1c81611cf6565b92915050565b600060208284031215611d3857611d37611c32565b5b6000611d4684828501611d0d565b91505092915050565b611d5881611c57565b82525050565b6000602082019050611d736000830184611d4f565b92915050565b600080600060608486031215611d9257611d91611c32565b5b6000611da086828701611d0d565b9350506020611db186828701611c80565b9250506040611dc286828701611d0d565b9150509250925092565b6000611dd782611c37565b9050919050565b611de781611dcc565b8114611df257600080fd5b50565b600081359050611e0481611dde565b92915050565b600080600060608486031215611e2357611e22611c32565b5b6000611e3186828701611c80565b9350506020611e4286828701611d0d565b9250506040611e5386828701611df5565b9150509250925092565b60008060408385031215611e7457611e73611c32565b5b6000611e8285828601611d0d565b9250506020611e9385828601611df5565b9150509250929050565b60008115159050919050565b611eb281611e9d565b82525050565b6000602082019050611ecd6000830184611ea9565b92915050565b600080600060608486031215611eec57611eeb611c32565b5b6000611efa86828701611c80565b9350506020611f0b86828701611c80565b9250506040611f1c86828701611d0d565b9150509250925092565b6000819050919050565b6000611f4b611f46611f4184611c37565b611f26565b611c37565b9050919050565b6000611f5d82611f30565b9050919050565b6000611f6f82611f52565b9050919050565b611f7f81611f64565b82525050565b6000602082019050611f9a6000830184611f76565b92915050565b7f4e487b7100000000000000000000000000000000000000000000000000000000600052601160045260246000fd5b6000611fda82611cc2565b9150611fe583611cc2565b9250827fffffffffffffffffffffffffffffffffffffffffffffffffffffffffffffffff0382111561201a57612019611fa0565b5b828201905092915050565b600082825260208201905092915050565b7f77726f6e6720626f72726f776572000000000000000000000000000000000000600082015250565b600061206c600e83612025565b915061207782612036565b602082019050919050565b6000602082019050818103600083015261209b8161205f565b9050919050565b7f6e6f742061207374616b65720000000000000000000000000000000000000000600082015250565b60006120d8600c83612025565b91506120e3826120a2565b602082019050919050565b60006020820190508181036000830152612107816120cb565b9050919050565b600061211982611cc2565b915061212483611cc2565b9250817fffffffffffffffffffffffffffffffffffffffffffffffffffffffffffffffff048311821515161561215d5761215c611fa0565b5b828202905092915050565b7f63616e7420626f72726f77000000000000000000000000000000000000000000600082015250565b600061219e600b83612025565b91506121a982612168565b602082019050919050565b600060208201905081810360008301526121cd81612191565b9050919050565b6000815190506121e381611cf6565b92915050565b6000602082840312156121ff576121fe611c32565b5b600061220d848285016121d4565b91505092915050565b7f4e487b7100000000000000000000000000000000000000000000000000000000600052603260045260246000fd5b600061225082611f52565b9050919050565b61226081612245565b82525050565b600060608201905061227b6000830186611d4f565b6122886020830185612257565b6122956040830184611ccc565b949350505050565b6122a681611e9d565b81146122b157600080fd5b50565b6000815190506122c38161229d565b92915050565b6000602082840312156122df576122de611c32565b5b60006122ed848285016122b4565b91505092915050565b600061230182611cc2565b91507fffffffffffffffffffffffffffffffffffffffffffffffffffffffffffffffff82141561233457612333611fa0565b5b600182019050919050565b600061234a82611cc2565b915061235583611cc2565b92508282101561236857612367611fa0565b5b828203905092915050565b60006060820190506123886000830186611d4f565b6123956020830185611d4f565b6123a26040830184611ccc565b94935050505056fea26469706673582212209b23b371b66faf7d219f62ec6e0292fb21023279fe759b3b5f32bd969f74e40864736f6c634300080b0033",
  "immutableReferences": {
    "43": [
      {
        "length": 32,
        "start": 2252
      }
    ]
  },
  "source": "// SPDX-License-Identifier: MIT\r\npragma solidity >0.5.0 <= 0.9.0;\r\n\r\nimport \"./sdt-token.sol\";\r\n\r\ncontract stakeSDT {    \r\n    SDTToken public token = SDTToken(0x6cB911EDA0E4D07F21Ae2F735450DEDBe0387463);\r\n    address public immutable stakeVault;\r\n    address vault = 0x246897C43c988A198B47703E0D3D7803835DD78A;\r\n    constructor() {\r\n        stakeVault = msg.sender;\r\n    } \r\n\r\n    address[] public ethStakers;\r\n    address[] public ethLenders;\r\n    uint[] public functionTime;\r\n\r\n    bool public borrowCalled;\r\n\r\n    mapping(address => uint) public stakeVaultInfo;  \r\n    mapping(address => bool) public stakersRegister;\r\n    mapping(address => bool) public lendersRegister;\r\n    mapping(address => uint) public lenderVaultInfo;\r\n    mapping(address => uint) stakersReward;\r\n    mapping(address => uint) repaymentTime;\r\n    error message(string);\r\n    \r\n    function stake(address staker, address to, uint amount) external {\r\n        uint limit = 1000;\r\n        require(amount >= limit);\r\n        require(to == vault);\r\n        address spender = msg.sender;\r\n        stakeVaultInfo[staker] = amount;\r\n        ethStakers.push(staker);\r\n        stakersRegister[staker] = true;\r\n        lendersRegister[staker] = false;\r\n        token.transferFrom(staker, to, amount);\r\n    }  \r\n\r\n    function getSDTBal(address account) external view returns(uint) {\r\n     return token.balanceOf(account);\r\n    } \r\n\r\n     \r\n\r\n    function getStakingBal() external view returns(uint) {\r\n        return stakeVaultInfo[msg.sender];\r\n    } \r\n\r\n     uint time;\r\n    function borrow(uint amount, address borrower, uint repayTime) external {\r\n        uint interval = 0 seconds;\r\n        time = repayTime + interval;\r\n        require(borrower == msg.sender, 'wrong borrower');\r\n        require(stakersRegister[borrower] == true, 'not a staker');\r\n        require(amount <= stakeVaultInfo[borrower] * 2, 'cant borrow');\r\n        ethLenders.push(borrower);\r\n        borrowCalled = true;\r\n        lenderVaultInfo[borrower] = amount;\r\n        repaymentTime[borrower] = block.timestamp + time;\r\n    }\r\n    \r\n\r\n    function lend(address _vault, uint amount, address payable lender) external {\r\n        require(borrowCalled == true);\r\n        require(_vault == vault);\r\n        require(lenderVaultInfo[lender] == amount);\r\n        for(uint i = 0; i < ethLenders.length; i++) {\r\n             if(ethLenders[i] == lender) {\r\n                 token.transferFrom(_vault, lender, amount);\r\n                 borrowCalled = false;\r\n             }\r\n         }\r\n    }\r\n\r\n    function repayment(address pVault,address payingLender, uint amount) public {\r\n        require(amount == lenderVaultInfo[payingLender]);\r\n        require(block.timestamp >= repaymentTime[payingLender]);        \r\n        for(uint i = 0; i < ethLenders.length; i++) {\r\n            if(ethLenders[i] == payingLender) {\r\n                token.transferFrom(payingLender,pVault,amount);\r\n                delete ethLenders[i];\r\n            }\r\n        }      \r\n    }\r\n\r\n    function getReward() external view returns(uint) {\r\n        return stakersReward[msg.sender];\r\n    }\r\n    \r\n    function rewardStaker(uint amount, address payable recipent) external payable {\r\n        amount = msg.value;\r\n        require(msg.sender == vault);\r\n        functionTime.push(block.timestamp);\r\n     if(functionTime.length > 2) {\r\n            require(block.timestamp >= functionTime[functionTime.length-2] + 30 seconds);\r\n        if(stakeVaultInfo[recipent] >= 1000 || stakeVaultInfo[recipent] <= 4999) {\r\n            amount = 1000;\r\n            stakersReward[recipent] = msg.value;\r\n            recipent.transfer(msg.value);           \r\n        } else if(stakeVaultInfo[recipent] >= 5000 || stakeVaultInfo[recipent] <= 19999) {\r\n            amount = 5000;\r\n            recipent.transfer(msg.value);\r\n            stakersReward[recipent] = stakersReward[recipent] + msg.value;\r\n        } else if(stakeVaultInfo[recipent] >= 20000 || stakeVaultInfo[recipent] <= 49999) {\r\n            amount = 10000;\r\n            recipent.transfer(msg.value);\r\n            stakersReward[recipent] = stakersReward[recipent] + msg.value; \r\n        } else if(stakeVaultInfo[recipent] >= 50000) {\r\n            amount = 25000;\r\n            recipent.transfer(msg.value);\r\n            stakersReward[recipent] = stakersReward[recipent] + msg.value; \r\n        }\r\n      } else {\r\n           if(stakeVaultInfo[recipent] >= 1000 || stakeVaultInfo[recipent] <= 4999) {\r\n            amount = 1000;\r\n            recipent.transfer(msg.value);   \r\n            stakersReward[recipent] = stakersReward[recipent] + msg.value;        \r\n        } else if(stakeVaultInfo[recipent] >= 5000 || stakeVaultInfo[recipent] <= 19999) {\r\n            amount = 5000;\r\n            recipent.transfer(msg.value); \r\n            stakersReward[recipent] = stakersReward[recipent] + msg.value;\r\n        } else if(stakeVaultInfo[recipent] >= 20000 || stakeVaultInfo[recipent] <= 49999) {\r\n            amount = 10000;\r\n            recipent.transfer(msg.value);\r\n            stakersReward[recipent] = stakersReward[recipent] + msg.value; \r\n        } else if(stakeVaultInfo[recipent] >= 50000) {\r\n            amount = 25000;\r\n            recipent.transfer(msg.value); \r\n            stakersReward[recipent] = stakersReward[recipent] + msg.value;\r\n        }\r\n      }\r\n    }\r\n}\r\n",
  "sourcePath": "C:\\Users\\lateefat .D. Ibrahim\\Desktop\\Blank\\hayorGithub\\SDT-protocol\\contracts\\sdt-protocol.sol",
  "compiler": {
    "name": "solc",
    "version": "0.8.11+commit.d7f03943.Emscripten.clang"
  },
  "schemaVersion": "3.4.4",
  "updatedAt": "2022-10-19T14:49:50.105Z",
  "networkType": "ethereum",
  "devdoc": {
    "kind": "dev",
    "methods": {},
    "version": 1
  },
  "userdoc": {
    "kind": "user",
    "methods": {},
    "version": 1
  }
}